:020000040800F2
:10000000C0060020A101000869530008E945000866
:1000100065530008390B0008D96200080000000091
:100020000000000000000000000000005D5E00080D
:100030003D0B0008000000006D530008615E0008E1
:10004000BB010008BB010008BB010008ED5500081A
:10005000BB010008BB010008BB010008BB01000890
:10006000BB010008BB010008BB010008BB01000880
:10007000BB010008BB010008BB010008BB01000870
:10008000BB010008BB010008BB010008BB01000860
:10009000BB010008BB010008BB010008410B0008C0
:1000A000B95E0008BB010008BB010008BB010008E5
:1000B000C55E00080000000000000000BB01000851
:1000C000BB010008BB010008BB010008BB01000820
:1000D000BB010008BB010008BB010008BB01000810
:1000E000BB010008BB010008000000000000000088
:1000F0000000000000000000000000000000000000
:1001000000000000BB01000800000000BB01000867
:100110000000000000000000D15E0008BB010008E4
:10012000BB010008BB010008BB010008BB010008BF
:10013000BB010008000000000000000000000000FB
:10014000BB010008BB010008BB0100080000000063
:10015000BB010008BB010008BB010008BB0100088F
:10016000BB010008BB010008BB0100080000000043
:10017000BB010008BB0100080000000000000000F7
:10018000BB010008BB010008BB010008DFF80CD070
:1001900000F042FB00480047B1660008C00600209E
:1001A0000648804706480047FEE7FEE7FEE7FEE711
:1001B000FEE7FEE7FEE7FEE7FEE7FEE7655E000816
:1001C0008D0100082DE9F05F0546002092469B4610
:1001D00088460646814640241BE02846414647465D
:1001E000224600F06DF953465A46C01A914110D389
:1001F00011461846224600F054F92D1A67EB010803
:100200004F4622460120002100F04BF917EB000970
:100210004E41201EA4F10104DFDC484631462A4647
:10022000434600F000B830BCBDE8C09FD2B201E048
:1002300000F8012B491EFBD270470022F6E710B5EB
:1002400013460A4604461946FFF7F0FF204610BD44
:100250002DE9FE4F81EA030404F0004421F000413F
:1002600000944FF0000B23F0004350EA01045ED0ED
:1002700052EA03045BD0C3F30A54C1F30A552C4479
:10028000A4F2F3340194A0FB0254C1F3130141F42E
:100290008011C3F3130343F4801301FB024400FBFA
:1002A000034E840A970A44EA815447EA8357A4FB21
:1002B000076802958D0A05FB07854FEA932C04FB1E
:1002C0000C542705029D4FEA065847EA1637B5EB4E
:1002D00008056EEB070C870E920E47EA811742EA7B
:1002E0008312A7FB0201B6EB0B0164EB00042B0D9C
:1002F00043EA0C335E1844EB1C50DA465146E7FBE8
:100300000201C5F313044FEA0B3343EA14534FEAD7
:100310000432019C43EA0603A4F10C040294009CFD
:10032000CDE900B400F022F903B000F003B80020DA
:100330000146F9E730BCBDE8C08F2DE9F04D81EAF8
:10034000030404F0004B21F0004514464FF0000A6E
:1003500023F0004150EA050220D054EA01021DD0EA
:10036000C5F30A570246C5F31303C1F31300C1F3E3
:100370000A5640F4801543F48013A7EB0608101BBF
:10038000D64608F2FD3873EB050002D308F10108E8
:1003900001E092185B41B8F1000F03DA002001463A
:1003A000BDE8F08D00204FF48011064684460EE033
:1003B000171B73EB050705D3121B63EB05030643FD
:1003C0004CEA010C49084FEA300092185B4150EAB0
:1003D0000107EDD152EA030012D082EA040083EA59
:1003E0000501084305D0101BAB4106D201220023B2
:1003F00006E000224FF0004302E06FF001025310CC
:100400001AEB06004CEB085110EB0A0041EB0B0114
:10041000BDE8F04D00F09BB800F0004230F0004025
:100420000AD0C10D01F56071C0F3160042EA015116
:10043000C20840071143704700200146704701F091
:10044000004330B421F0004150EA010206D00A0D09
:10045000A2F56072C1F31301002A02DC30BC002057
:100460007047440F44EAC104C100E01830BC00EBFF
:10047000C25000F035B830B50B46014600202022AE
:10048000012409E021FA02F59D4205D303FA02F5A1
:10049000491B04FA02F52844151EA2F10102F1DC01
:1004A00030BD202A04DB203A00FA02F10020704718
:1004B0009140C2F1200320FA03F3194390407047A2
:1004C000202A04DB203A21FA02F00021704721FAA9
:1004D00002F3D040C2F12002914008431946704710
:1004E0000029A8BF7047401C490008BF20F0010048
:1004F000704710B4B0FA80FC00FA0CF050EA010426
:1005000004BF10BC704749B1CCF1200421FA04F4B7
:1005100011FA0CF118BF012121430843A3EB0C0190
:10052000CB1D4FEA00614FEA102042BF002010BCF3
:10053000704700EBC35010440029A4BF10BC7047A3
:10054000401C490008BF20F0010010BC704710B5E6
:10055000141E73F1000408DA401C41F100019218E6
:100560005B411A4301D120F0010010BD2DE9F04D8F
:1005700092469B4611B1B1FA81F202E0B0FA80F2E4
:1005800020329046FFF78DFF04460F4640EA0A00EE
:1005900041EA0B0153465A46084313D0114653EA29
:1005A000010019D0C8F140025046FFF789FF054607
:1005B0000E46504659464246FFF773FF084305D0A2
:1005C000012004E020463946BDE8F08D00200543B7
:1005D00046EAE0762C4337430A986305E40AA0EB29
:1005E00008000022FD0A44EA47540A3002D50020E0
:1005F0000146E9E7010510196941DDE908450019DF
:100600006941BDE8F04DA2E72DE9FE4F804681EA41
:100610000300C00F0C46009021F0004123F000457C
:10062000B8EB0200A94105D24046214690461C463F
:100630000B46024623F00040104347D0270DC7F376
:100640000A00C3F30A510290401A019040286BDA65
:10065000C3F3130040F4801B0098924620B100239E
:10066000D2EB030A63EB0B0B01985946C0F1400231
:100670005046FFF716FF06460D4650465946019A6A
:1006800000F0E2F810EB08006141002487EA115203
:1006900084EAE7731A4340D0009A62B3019A012AB0
:1006A0004FEA075215DC001B61EB02014FF00042DC
:1006B00002EA0752CDE90042001C41F580113246A2
:1006C0002B46FFF753FF03B000F045B840462146E4
:1006D000F9E7001B61EB0201001C41F580130018D3
:1006E0005B412018A2F5001747EB030140EAD570E3
:1006F000B6196D4111E06D084FEA360645EAC0753E
:100700004FEA0752001B61EB0201001C41F580110A
:1007100049084FEA30000019514132462B4603B0D8
:1007200000F01CB8FFF713BF00980122400000231F
:10073000D0EB020263EBE073009821464FEAE074CD
:10074000B8EB000061EB0401E9E783F000435BE7ED
:1007500081F0004158E730BCBDE8C08F30BCBDE837
:10076000C04FFFF7DFBF70B521F0004303430CD04B
:10077000C1F30A550024D5EB040564EB0403D61736
:10078000AD1AB34102DB0020014670BD201841EBD9
:10079000025170BD0EB5C10F80EAE0700844CA076F
:1007A000002140F233438DE80E000A460B46FFF766
:1007B000DDFE03B000BDC1F30A52C1F3130140F2E4
:1007C000FF3341F480119A4202DA0020014670475B
:1007D00040F233439A42A2F2334202DC5242FFF724
:1007E0006FBEFFF75EBE000030B5041E71F100045D
:1007F00004DB4FF00044404264EB0101141E73F12E
:10080000000405DB1C464FF00043524263EB040337
:10081000994208BF904230BD1CB509480090094874
:1008200001900546009C06E0E06840F0010394E872
:10083000070098471034AC42F6D3FFF7ABFC00003A
:100840004C9B00086C9B0008202A06DBCB17203A43
:1008500041FA02F043EAE07306E041FA02F3D040C5
:10086000C2F1200291400843194670472DE9F04D2E
:1008700000231A461B1A8A4103DB00200146BDE80B
:10088000F08DC1F30A52C1F3130141F480154FF00A
:10089000000BD10702D100186D41521E00270446FB
:1008A00040F2FF11384601EB620A3E46804602469E
:1008B00000204FF48011FFF703FEC2197141BB18ED
:1008C00046EB0100B4EB030C75EB000C04D3E41A07
:1008D00065EB000517460E46241908F101006D412D
:1008E00080463428E3DDF91946EB0600091BA841D0
:1008F00003D24FF0FF32134601E0002213461BEBF8
:10090000070046EB0A51BDE8F04DFFF720BE00009E
:1009100070B5044600688268836802F0040203F040
:100920000803D2185FD0C268920113D5627E012AF3
:1009300010D1227E012A0DD10168490607D4012178
:10094000CAF24031013944D002685206FAD540213A
:1009500001600121022911D0826852070AD58268FC
:10096000920707D482684FF6C073C7F6FF731A4028
:1009700010328260012901D1042614E08268120736
:100980000AD58268920707D482684FF6C073C7F60B
:10099000FF731A40203282600426022908BF08260D
:1009A000032908BF0C2601F08FF9216889683142BC
:1009B00019D0054604E000BF20688068304212D09C
:1009C00001F082F9401B0628F6D320688068304287
:1009D000F2D0606D40F010006065A06D40F0010045
:1009E000A065012070BD002070BD0000B0B5016899
:1009F00004468A688868C0074FF0000032D012F0C1
:100A0000020218BFB0BD886800F00D00012820D197
:100A100088684FF6C072C7F6FF72104002308860D7
:100A20000320086001F050F921688968C90704BFF4
:100A30000020B0BD054603E020688068C00712D0E2
:100A400001F042F9401B0328F6D320688068C007F4
:100A5000F2D0606D40F010006065A06D40F00100C4
:100A6000A0650120B0BD0020B0BD000070B582B00F
:100A700004460020019021688A68D20711D14FF600
:100A8000C076C7F6FF76886806F17F0210420AD06A
:100A9000606D40F010006065A06D40F00100A06541
:100AA000012002B070BD8868304040F001008860CD
:100AB00040F20830C5F204000068000221D401F0C1
:100AC00003F921680A68D20718D1054604E000BF7F
:100AD00021680868C00711D18868C00704D18868F8
:100AE000304040F00100886001F0EEF8401B032820
:100AF000EED320680068C007EAD1C9E7002002B041
:100B000070BD40F20C00C2F20000006842F6635172
:100B10008009C0F23E51A0FB0101880900EB4000B2
:100B20000C2101EB800000BF019001980028C6D085
:100B300001980138F8E70000FEE700007047000068
:100B4000202000F0DBBF00007047000040F21400DE
:100B5000C2F20000027F02F0FD01012942F2000111
:100B6000C4F202010FD10B6823F400730B600B6811
:100B700043F400630B600B6823F400630B600B68A5
:100B800043F400730B6002F0FE02022A0BD10A68E4
:100B900042F480520A600A6822F480520A600A68AD
:100BA00042F480620A60002101777047F0B581B09D
:100BB00042F210060446C4F2020601F085F83168DC
:100BC000C9030FD430684CF2FA31C0F2020101407F
:100BD00019D040F21400C2F2000042680A43426099
:100BE000012016E00546671C03E000BF3068C00323
:100BF000E8D5002FFAD001F067F8401BA042F5D3EA
:100C0000032001B0F0BD3068C0074FF0000001D0F4
:100C10000121316001B0F0BD80B586B000200590A3
:100C2000019001207F210290CDE9031000F0B4FE75
:100C300001A805A900F02CFD00F0D2FD06B080BD92
:100C40002DE9F04F87B04FF0904049F6F37100F076
:100C5000BBFE40F20048C4F60008404640F6FF7173
:100C600000F0B2FE08F58067384643F2DE7143F2C9
:100C7000DE7400F0A9FE08F500652846042100F0A6
:100C8000A3FE08F5C056304608214FF0080B00F0CF
:100C90009BFE4FF0000941F24C00CDF81890CDE9D1
:100CA0000499CDE90299C4F2020001684FF0030AE9
:100CB00041F004010160016801F004010191019912
:100CC000016841F080010160016801F0800101913B
:100CD0000199016841F001010160016801F0010121
:100CE00001910199016841F002010160016801F080
:100CF000020101910199016841F008010160006859
:100D000000F0080001900198029402AC3846214698
:100D1000CDE903A900F0FEFE49F6F310CDE9020A81
:100D20004FF090402146CDF8109000F0F3FE40F6D1
:100D3000FF70CDE9020A40462146CDF8109000F040
:100D4000E9FE0420CDE9020A28462146CDF810909C
:100D500000F0E0FE30462146CDE902BACDF8109011
:100D600000F0D8FE07B000F000B830BCBDE8C08F7E
:100D7000F0B581B00446C8B140F2C0050026C2F209
:100D800000050027284600F013FC2846322100F019
:100D9000A9FB284600F060FA0136F1B2A1420744EF
:100DA000F0D300EE107AB8EE400A01E09FED040A9D
:100DB00001EE104AB8EE411A80EE010A01B0F0BD12
:100DC0000000000010B5044690F85000012804BF50
:100DD000022010BD012084F8500020460221FFF7B8
:100DE00097FD88B921688968490709D42046FFF72B
:100DF000FDFD48B9616D41F201129143013102E0FC
:100E0000616D21F480516165002184F8501010BD9E
:100E1000F0B581B00022009290F85020012A01D153
:100E2000022168E10123076880F85030BB685B0746
:100E300000F18C804B68052B07D8023B032B9ABF2F
:100E4000AEA454F8233006234B60D1E900341F26AA
:100E5000C4F3012207EB8202156B04F01F04A640C5
:100E6000C3F3846325EA0606A34033431363BA68D9
:100E7000BB6802F0040203F00803D21840F081803E
:100E80000A688B68C2F3406607EB86067569C2F391
:100E9000045207249440A54303FA02F22A437261E4
:100EA000D1E9043CFC68042B56D13A6E3A6E0B68CB
:100EB000C2F3846293FAA3F6B6FA86F65D0308BF1E
:100EC000C3F384664FF6FF73B242C0F2070303D147
:100ED0003A6E22F000423A667A6E7A6E0E68C2F37B
:100EE000846296FAA6F5B5FA85F51E4208BFC6F3E8
:100EF0008465AA4203D17A6E22F000427A66BA6E05
:100F0000BA6E0E68C2F3846296FAA6F5B5FA85F554
:100F10001E4208BFC6F38465AA4203D1BA6E22F00E
:100F20000042BA66FA6EFA6E0E68C2F3846296FAEE
:100F3000A6F5B5FA85F51E4208BFC6F38465AA4238
:100F40001FD1FA6E22F00042FA661AE0416D41F0BC
:100F5000200141650121CBE006220E6807EB8303E7
:100F600002EA94021D6E4FF200040CFA02F2C0F283
:100F7000FF3406F0F846254032432A4342F000424F
:100F80001A66BA68D20743D10C68CA68D7F8B0604D
:100F900023466FF3DF4326EA030C4FF6FF7602F099
:100FA0001805C0F20706EE4000252640C4F27F0572
:100FB00046EA0C06AA42C7F8B06029D194FAA4F216
:100FC000B2FA82F2002B08BFA20E013202F01E0319
:100FD00002F01F0201260025964002EB4202CFF6E6
:100FE000206505EB0255354345F000750A2B38BFE7
:100FF00046EA0255C5F3406307EB83038A685E69DE
:10100000C5F304550724AC40A643AA4032435A61B5
:101010000B680021C8F208010B4268D040F2083C7E
:10102000C5F2040CDCF800400021CCF252718B4276
:1010300004F0E07E08BF14F4000115D00021CCF6C6
:1010400084318B423BD10021B1EB1E6F37D1ACF51F
:1010500042718F424BD1DCF8001021F0E07141EA7F
:101060000E0141F0807140E0ACF542718F423ED1FB
:10107000DCF8001042F6635221F0E07141EA0E0103
:1010800041F40001CCF8001040F20C01C2F2000162
:101090000968C0F23E528909A1FB0212910901EBD5
:1010A00041010C2202EB810100910099F9B100BFCE
:1010B00000990139009100990029F9D117E0ACF5A8
:1010C00042718F424FF0000112D10122C8F200029A
:1010D000934208BF14F480020AD1DCF8001021F01A
:1010E000E07141EA0E0141F48001CCF800100021CA
:1010F000002280F85020084601B0F0BD0C0000002E
:10110000120000001800000000010000002804BFC9
:1011100001207047B0B50446406D032140F0020045
:1011200060652046FFF7F4FB2168CA6842F40012AC
:10113000CA6030B92046FFF759FC002804BF0121DE
:101140006165216840F2FF734A689A434A600B6008
:101150008A6848F2040322F0A0428A608A68C8F2D2
:10116000000342F000528A60CA681A40CA60CA6826
:1011700040F6200342F00042CA600A69CEF28203C0
:101180006FF30A020A614A6903F1100502F0404256
:101190004A618A6902F078428A610A6A02F0F022A2
:1011A0000A624A6A22F0FF124A628A6A22F0FF1239
:1011B0008A620A6B2A400A634A6B1A404A638A6B46
:1011C0001A408A63CA6B40F2DF739A43CA630A6E9D
:1011D0004FF20003C0F2FF331A400A664A6E1A400B
:1011E0004A668A6E1A408A66CA6E1A40CA66D1F882
:1011F000A0206FF31202C1F8A020D1F8A4206FF351
:101200001202C1F8A420D1F8B0206FF31202C1F885
:10121000B020D1F8B43040F2083223F07F13C1F887
:10122000B4304FF60051C5F20402CFF6FF715158A9
:10123000C90708D1116805466FF3184120461160AF
:1012400000F0EAF828460021A165C4E9171161659C
:1012500084F85010B0BD00000068006C70470000BA
:10126000B0B582B000210028019143D0416D39B959
:10127000044600F0E5F820460021A16584F85010EE
:101280000268916889004FF6C071C5F6FF7102D5FA
:1012900093680B4093609368DB001DD4936801F161
:1012A0008051194041F08051916040F20C01C2F22E
:1012B0000001096842F663538909C0F23E53A1FB5D
:1012C00003139909022303EB410100BF0191019926
:1012D00011B101990139F9E79168C9000DD4416D47
:1012E0004FF0010E41F010014165816D41F00101A7
:1012F000816504E04FF0010E8AE04FF0000E936824
:10130000446D03F0040304F010041B19436D68D10D
:1013100023F48173023343659368DB0712D140F2F3
:1013200008334FF60054C5F20403CFF6FF741C597E
:10133000E40707D1D0F804C01C6824F47C1444EA04
:101340000C041C60437E446BD0E902C144EA433381
:10135000194390F8203041EA0C01012B41EA034384
:1013600006D1416A0024CFF6FE7404EB41410B43E1
:10137000846A24B1C16A04F4707421430B43D168B8
:101380004CF20704CFF6F07421401943D160916804
:10139000936801F0040103F00803C91829D190F8FB
:1013A0003030017E5B0090F838C043EA8131D36869
:1013B00044F20204A3431943D1601369BCF1010F45
:1013C00014D140F2FD7123EA010CD0E90F34D0E9C9
:1013D000111543EA0C0323431943294341F0010348
:1013E00006E043F010024FF0010E10E023F001037D
:1013F00013610169136B012923F00F0302D1C16945
:1014000001390B431363426D012161F3010242650F
:10141000704602B0B0BD000000680021C5F20401B2
:10142000884218BF704741F24C02C4F202021068B1
:10143000102120F400534FF09040136000F0C4BA24
:1014400010B59EB0044600201D90CDE91B00CDE9EB
:10145000190002A820303C21FEF7EFFE2068002191
:10146000C5F20401884201D01EB010BD4FF4804087
:1014700002904FF08050082116900220059107211C
:10148000CDE90300CDE9061008904FF08070099077
:1014900002A800F05FFD002818BFFFF755FB41F2DE
:1014A0004C00C4F20200016841F40051016001687F
:1014B00001F4005101910199016841F001010160BD
:1014C000006819A900F001000190019810201990FE
:1014D0000B201A9000201B904FF0904000F01AFB58
:1014E0001EB010BD2DE9F04381B0D0F81480044641
:1014F000B8F1080F0D4601D1082704E02068C06844
:10150000C00742D1042700F0DFFB21680A683A4295
:1015100025D0606D40F400706065C86810F4406FBD
:101520000FD1607E68B9086800070AD5606D20F4A5
:1015300080706065606DC00403D4606D40F0010090
:101540006065C868B8F1080F01D1082002E04004C6
:1015500001D40C200860002001B0BDE8F083814672
:101560006E1C07E020680068384216D021680868C1
:101570003842CED1002EF9D000F0A6FB002DF1D0DC
:10158000A0EB0900A842F1D9ECE7606D40F0200023
:101590006065012001B0BDE8F083606D40F004009B
:1015A0006065002084F85000032001B0BDE8F0839E
:1015B00010B5044600688068400703D494F85000D2
:1015C000012801D1022010BD012084F850002046DE
:1015D000FFF74CFA18B1002184F8501010BD616D6E
:1015E00040F60172914301F580716165616D0022E1
:1015F000C9044FF0000144BFA16D21F00601A165AF
:1016000021681C230B6084F85020CA68920104D51D
:10161000626D012363F30D3262658A684FF6C07311
:10162000C7F6FF731A4004328A6010BD10B5044635
:1016300090F85000012804BF022010BD012084F85A
:10164000500020460321FFF763F948B92046FFF711
:10165000CDF928B9616D41F2011291430131616503
:10166000002184F8501010BDB0B5044600F02CFBEA
:10167000054640F23400C2F200000078611C18BF39
:10168000044400BF00F020FB401BA042FAD3B0BDD1
:101690002DE9F04740F21409C2F2000999F8002040
:1016A000012A04BF0220BDE8F0870546012089F821
:1016B00000004CF250308846FFF778FA002840F0DE
:1016C000898042F200070021C4F20207C9F8041021
:1016D00039683A68520502D4C1F3402109E03A68FA
:1016E00011F400714FF0030122F4806208BF02215F
:1016F0003A6089F81C102968012913D12879C0079C
:1017000003D0786940F004007861786940F4803053
:1017100078614CF25030FFF749FA796921F0040101
:1017200079612EE04FF0FF31C8F80010D5E9024191
:1017300021448C4225D2E60040F2FA3A786906F458
:10174000FF6120F47E7008437861786940F0020000
:101750007861786940F4803078614CF25030FFF75E
:1017600025FA796921EA0A01796140B9D5E90212BD
:10177000013411448C4206F10806DFD301E0C8F8B9
:10178000004099F81C1001F0FD02012A0FD13A68BF
:1017900022F400723A603A6842F400623A603A68B1
:1017A00022F400623A603A6842F400723A6001F052
:1017B000FE0102290BD1396841F480513960396842
:1017C00021F480513960396841F480613960002129
:1017D00089F81C10002189F80010BDE8F08700008E
:1017E00042F21401C4F20201086840F000420020F5
:1017F0000A6070472DE9F04F81B0984640F214031B
:10180000C2F2000392461A78012A03D1022001B0E5
:1018100000F0BEB8044642F210054CF2FA3901203D
:101820000E46C4F20205C0F20209187000F04CFA2C
:101830002968C9030AD507464CF24F3B00F044FA29
:10184000C01B584521D82868C003F7D4286810EA7F
:10185000090209D040F21403C2F20003586811468D
:101860001043586001200AE0286840F21403C007C2
:101870004FF001014FF00000C2F2000303D0B2FAB2
:1018800082F22960510941B97DE040F2140303203E
:101890000021C2F20003002975D00020586055F8DD
:1018A000101C490506D555F8100C20F4806045F849
:1018B000100C0220187714B3022C2ED86868AAF1F5
:1018C000040240F480206860EFF31080EFF3108191
:1018D00072B6311F402300BF52F8047F013B1E0641
:1018E00041F8047FF8D1A71E18BF012780F31088A4
:1018F0006FF48028022C18BF4FF0FF3810E06868A2
:10190000002740F001006860C6F800A0BFF36F8FA9
:10191000C6F804806FF0010802E04FF0FF3801279D
:1019200000F0D2F92968C9030AD504464CF24F36B3
:1019300000F0CAF9001BB04217D82868C003F7D4DA
:10194000286810EA090108D040F21402C2F200022D
:10195000506808435060012005E02868C0074FF038
:10196000000003D00121296000E0032004461FB9D4
:10197000686800EA08006860FFF7E8F840F21403BE
:101980002046C2F200030021197001B000F000B837
:1019900030BCBDE8C08F000042F20800C4F2020073
:1019A000C168B1F1FF3FC4BF0020704740F223116E
:1019B000C4F26751016048F6AB11CCF6EF510160FB
:1019C000C068C00F70470000002908BF70472DE9AC
:1019D000F04F81B041F2000200F13847C4F6000236
:1019E00007234FEAB726904208BF042300F1200ED8
:1019F000042E38BF4FEAB7230024002700250093A8
:101A000026E000BF02680323A3401A4302606FF080
:101A1000030202EA550607F01C0C5EF806800F224E
:101A200002FA0CF228EA02024EF8062082689A4373
:101A30008260426822EA0A024260C2689A43C26037
:101A4000013531FA05F207F1040704F102043BD035
:101A5000012202FA05FA1AEA0108F1D040F2004226
:101A6000C4F20102A2F57E7C25F0030307F00C0B03
:101A70000F225CF8033002FA0BF9009A03EA09031B
:101A800002FA0BF29342BDD140F20046C4F20106C5
:101A9000326840F20C4322EA080232607268C4F2F3
:101AA000010322EA080272601A6822EA08021A6038
:101AB000B268AB0822EA0802B2605CF8232022EA8E
:101AC00009024CF823209DE701B000F001B87047EF
:101AD00030BCBDE8C04FFFF7FABF0000202818BF98
:101AE000704740F26400C2F200000021018040F221
:101AF0004500C2F2000001707047000040F214413E
:101B0000C4F201010A68024214BF08607047FFF77F
:101B1000E5BF00002DE9F04F83B00E68002E00F005
:101B2000C68000F1200241F2000C009200F138471B
:101B3000C4F6000C07224FEAB725604508BF04220F
:101B4000042D38BF4FEAB722002500274FF0000AC6
:101B500001920AE00E680AF1010A36FA0AF207F168
:101B6000020705F1040500F0A280012202FA0AFC36
:101B700016EA0C09EED0D1F804B003220BF00308EA
:101B8000A8F10106012E02FA07F610D8D0F808E0F5
:101B9000CC682EEA0602BC40224382604268CBF346
:101BA000001422EA0C0204FA0AF422434260B8F15B
:101BB000030F1ED0C2688C68B243BC402243B8F108
:101BC000020FC26015D16FF00302009C02EA5A0BAB
:101BD00054F80BC005F01C030F22D1F8108002FA54
:101BE00003FE2CEA0E0C08FA03F343EA0C0344F854
:101BF0000B3002684B68B24303F00306BE40324329
:101C000013F4403F0260A5D041F26003C4F2020326
:101C10001A6840F2004E42F001021A601A68C4F2DB
:101C2000010E02F001020292029A2AF003024FF61C
:101C3000084C7244CFF6FF7C52F80C3005F00C06CD
:101C40000F24B440A343019C04FA06F6334342F840
:101C50000C30DEF808204B6842EA090640F20C4CD2
:101C6000DC0258BF22EA0906CEF80860C4F2010C73
:101C7000DCF800209C0242EA090658BF22EA090665
:101C8000CCF80060DEF804209C0342EA090658BF45
:101C900022EA0906CEF80460DEF80020DB0342EAFF
:101CA000090658BF22EA0906CEF8006052E703B0E1
:101CB00000F000B830BCBDE8C08F00001823002A37
:101CC00008BF2823C150704740F2B820C2F200007C
:101CD0000068704740F2340040F2B821C2F20000C0
:101CE000C2F2000100780A681044086070470000E2
:101CF00080B5032000F0A8F8002000F009F80028C3
:101D00001CBF012080BD00F031F8002080BD000024
:101D100040F23401C2F200010978002904BF012019
:101D2000704710B5044640F20C00C2F200004FF4B8
:101D30007A720068B2FBF1F1B0FBF1F001F0ECFA5D
:101D400001460F2C4FF001000ED8002918BF10BD1E
:101D50004FF0FF302146002200F04AF840F23801EF
:101D60000020C2F200010C6010BD000082B041F200
:101D70005800C4F20200816841F00101816081686D
:101D800001F0010101910199016841F08051016068
:101D9000006800F080500090009802B0704700008A
:101DA000002848BF704700F01F01012202FA01F12C
:101DB0001C2202EAD0004EF28012CEF200028150C4
:101DC000BFF34F8FBFF36F8F70470000002848BFED
:101DD000704700F01F01012202FA01F11C2202EA01
:101DE000D0004EF20012CEF2000281507047000087
:101DF00010B54EF60C5CCEF2000CDCF80030C3F3EC
:101E0000022E8EF00704042C28BF0424BEF1030325
:101E10004FF0FF3E0EFA04F438BF0023A14399406F
:101E20000EFA03F39A43114300F1604200F00F03EE
:101E3000090102F56442043B6344002848BF03F1F2
:101E40000C02117010BD00004EF60C51CEF20001D4
:101E50000A684FF6FF031A4060F30A2242F08060DE
:101E600040F0FD700860704747F2000CC4F2000CAF
:101E7000DCF80020B0F5007F02F4C0602BD1B0F593
:101E8000007F26D0DCF80000012262F34A20CCF863
:101E9000000040F20C00C2F20000006832235843F8
:101EA0004DF68363C4F21B33A0FB030302EB9340A4
:101EB000002200BFDCF81410013842F1000349058C
:101EC00001D5002BF6D1DCF81400400544BF0320F7
:101ED000704700207047B0F5806FFAD0DCF8000042
:101EE000022161F34A20CCF8000000207047000076
:101EF00047F20002C4F20002136802214EF6105CA1
:101F000061F30203CEF2000C1360DCF8001001282C
:101F100041F00401CCF800100FBF30BF40BF20BF1C
:101F200020BFDCF8000020F00400CCF8000070476F
:101F300047F20000C4F20000006800F4C06070477F
:101F400047F20000C4F20000016841F480710160B2
:101F5000704700002DE9F04782B00446407841F216
:101F600088070007C4F2020702D44FF0000A2EE0EF
:101F7000606CB8B1B0F5400F0ED0B0F5000F1BD1BA
:101F800057F87C0C4FF0000A40F4803047F87C0C86
:101F9000BAF1000F0ED114E04FF0000ABAF1000FB1
:101FA00008D10EE0201D002103F0E2F98246BAF1CB
:101FB000000F06D0D0460CE04FF0010ABAF1000F36
:101FC000F8D13868616C20F44000084338604FF065
:101FD0000008A078800701D4C24664E057F8300CAE
:101FE0005FEAC0090BD457F8300C40F0805047F836
:101FF000300C57F8300C00F080500190019847F2F7
:102000000005C4F20005286840F480702860FFF7DE
:102010005BFE06462868C00506D4FFF755FE801B08
:102020000328F7D34FF0030ABAF1000F32D1B86892
:1020300010F4407011D0A16D88420BD0B868B96817
:1020400020F4407041F48031B960B96821F48031E6
:10205000B960B860C00703D112E00020C0070FD0FC
:10206000FFF732FE064641F2893500BFB8688007A7
:1020700006D4FFF729FE801BA842F7D34FF0030ACE
:10208000BAF1000F06D1B868A16D20F44070084382
:10209000C246B860B9F1000F05D457F8300C20F0F3
:1020A000805047F8300C2068C10712D1810718D43E
:1020B00041071ED4810624D481052AD4410530D499
:1020C000410636D401063CD4C10542D4000348D4AD
:1020D00061E03968226A21F0030111433960810708
:1020E000E6D53968626A21F00C0111433960410775
:1020F000E0D53968A26A21F03001114339608106C8
:10210000DAD53968E26A21F440611143396081050A
:10211000D4D53968E26B21F440211143396041057F
:10212000CED53968226C21F4401111433960410643
:10213000C8D53968226B21F440511143396001063A
:10214000C2D53968626B21F4404111433960C10541
:10215000BCD53968A26B21F44031114339600003CA
:1021600019D53968A06C21F040610143B0F1806F4E
:10217000396009D0B0F1006F0DD157F87C0C40F4F4
:10218000801047F87C0C06E0201D012103F0F0F8D8
:10219000002818BF8246A078400719D53968E06C3E
:1021A00021F040610143B0F1806F396009D0B0F196
:1021B000006F0DD157F87C0C40F4801047F87C0C70
:1021C00006E0201D012103F0D3F8002818BF824645
:1021D000607840060FD53868216D20F040500843E4
:1021E000B1F1805F386006D1201D022103F0C0F8F4
:1021F000002818BF82466078000605D53868616DF2
:1022000020F0804008433860504602B0BDE8F087B7
:102210002DE9F04381B0002800F0B48042F20008BC
:10222000C4F202080446D8F800000D4600F007008A
:1022300088420DD2D8F8000020F007002843C8F8E3
:102240000000D8F8000000F00700A84240F09A8093
:10225000206841F208098107C4F202090DD5A1687E
:10226000D9F8002002F0F002914206D9D9F80020F6
:1022700022F0F0021143C9F80010C0074DD12068C8
:1022800081070DD5A168D9F8002002F0F002914233
:1022900006D2D9F8002022F0F0021143C9F800104C
:1022A000D8F8001001F00701A9420CD9D8F80010A5
:1022B00021F007012943C8F80010D8F8001001F0F8
:1022C0000701A9425ED1410707D5D9F80010E2689D
:1022D00021F4E0611143C9F80010000708D5D9F8CE
:1022E0000000216920F4605040EAC100C9F80000F4
:1022F000D9F80000D9F8041010F00C0005D00C2813
:1023000034D101F00301012930D159F8081C090723
:102310000ED4D9F88C10090A0DE0606859F8081C31
:10232000A0B302282CD0032850D189012AD52FE050
:1023300059F8081C090949F6B02201F00F01C0F64E
:10234000000252F8211000280A4618BF00220C286B
:1023500058D1D9F8040000F00300022839D003282E
:1023600004BF41F20021C0F27A0136E0042865D0B2
:10237000082869D141F200220021C0F27A02E6E782
:10238000890305D4012001B0BDE8F0838907F9D5A0
:10239000D9F8001021F003010843C9F80000FFF745
:1023A00093FC064641F28837D9F80000616800F0D6
:1023B0000C00B0EB810F3FF462AFFFF785FC801B90
:1023C000B842F1D9032001B0BDE8F0834905D9D561
:1023D000DEE742F20041C0F2F401D9F80400D9F876
:1023E0000420C0F30210C2F306225143D9F804209E
:1023F0000130B1FBF0F0C2F34161022202EB410176
:10240000B0FBF1F2D9F8000049F21031C0F303102B
:10241000C0F60001085C00F01F0022FA00F140F253
:102420003800C2F2000040F20C020068C2F2000262
:10243000116001B0BDE8F043FFF76ABC42F2004210
:102440000021C0F2F40282E7002200217FE70000B1
:1024500040F20C0041F20801C2F20000C4F2020195
:102460000068096849F22032C1F30221C0F6000277
:10247000515C01F01F01C8407047000040F20C00A1
:1024800041F20801C2F20000C4F2020100680968CA
:1024900049F22032C1F3C221C0F60002515C01F0C2
:1024A0001F01C8407047000041F20C01C4F2020154
:1024B00051F8040C10F00C02086805D00C2A40D129
:1024C00000F0030001283CD151F80C0C000703D4A4
:1024D000D1F88800000A02E051F80C0C000949F616
:1024E000B02300F00F00C0F6000353F82030002A9C
:1024F000184618BF00200C2A18BF7047086800F063
:102500000300022806D0032804BF41F20023C0F2D2
:102510007A0303E042F20043C0F2F40308680A6859
:10252000C0F30210C2F30622096801305A43B2FB1D
:10253000F0F0C1F34161022202EB4101B0FBF1F086
:102540007047042A07D0082A0BD141F2002000234B
:10255000C0F27A00CFE742F200400023C0F2F4005C
:10256000C9E700200023C6E7002804BF0120704708
:102570002DE9F04383B041F200060446C4F202069E
:10258000B068F168227800F00C09D00601F0030869
:1025900019D42078C00700F0F880B9F1080F40D0B6
:1025A000B9F10C0F08BFB8F1030F3AD06568306875
:1025B000B5F5A02F00F0BF80B5F5803F40F0C28098
:1025C00040F48030C4E0B9F1000F1BD0B9F10C0F1A
:1025D00008BFB8F1010F15D0A1693068002979D082
:1025E00040F001003060FFF76FFB05463068800760
:1025F00000F18280FFF768FB401B02284FF00300C8
:10260000F4D92CE33068800703D5A069002800F0D6
:10261000CB82256A306800070CD4D6F894000009F4
:1026200009E03068800340F1B0806068002840F025
:10263000AC80B9E2306800F0F000854219D9B06D85
:10264000C0006BD4B06D40F08050B065B06D00F04C
:10265000805001900198FFF76BFCB16D21F0805123
:10266000B165B0F5007F5ED0802D40F2318203204D
:1026700038E23068B9F1000F40F00800306030688F
:1026800020F0F00040EA050030607068E16920F455
:102690007F4040EA0120706040F07482B06DC0005D
:1026A00000F14082B06D40F08050B065B06D00F038
:1026B000805002900298FFF73BFCB16D21F08051F1
:1026C000B165B0F5007F00F03382802D40F2428288
:1026D000032049E220F001003060FFF7F5FA0546DB
:1026E000306880077FF555AFFFF7EEFA401B0228F0
:1026F0004FF00300F4D9B2E2306840F008003060D7
:102700003068D4E9071220F0F000104330607068A0
:1027100020F47F4040EA012070603AE7FFF708FCB0
:10272000B0F5007FA0D1812DC0F0DB810120A02D6C
:1027300088BF0220D6E140F480203060306840F449
:10274000803005E020F480303060306820F4802054
:102750003060FFF7B9FA002D054613D030688003CA
:1027600013D4FFF7B1FA401B64284FF00300F5D9EA
:1027700075E200BFFFF7A8FA401B64284FF0030082
:1027800000F26D8230688003F4D4207880072CD565
:10279000B9F1040F1BD0B9F10C0F08BFB8F1020F4B
:1027A00015D0E1683068002900F07F8140F4807026
:1027B0003060FFF789FA0546306840050ED4FFF710
:1027C00083FA401B02284FF00300F5D947E2306836
:1027D000400503D5E068002800F0E68170682169B3
:1027E00020F0F85040EA016070602078000760D463
:1027F0002078400777D42078800600F1A580A06A71
:10280000002800F0A381022840F0CB80F068E16A44
:1028100000F003028A4240F0DB80226B6FF00F036E
:1028200000F0700103EB0212914240F0D180616B25
:1028300000F4FE42B2EB012F40F0CA80A16B00F021
:102840007842B2EBC16F40F0C380E26B0023CFF659
:10285000E07303EA025200F4C001A2F500129142B3
:1028600040F0B680216C4FF07E4202EA016100F038
:10287000C06001F17E41884240F0AA80306880014A
:1028800000F16481306840F080703060F06840F0A2
:102890008070F060FFF718FA04463068800100F19C
:1028A0005581FFF711FA001B02284FF00300F4D9FD
:1028B000D5E16169D6F8940000295ED040F00100AE
:1028C000C6F89400FFF700FA054600BFD6F894005A
:1028D00080078DD4FFF7F8F9401B0228F6D90320B2
:1028E00003B0BDE8F083B06D5FEAC00808D4B06DF6
:1028F00040F08050B065B06D00F0805000900098BE
:1029000047F20007C4F200073868C00511D43868E0
:1029100040F480703860FFF7D7F905463868C00585
:1029200007D4FFF7D1F9401B02284FF00300F5D977
:1029300095E1A568D6F89000052D7AD0012D40F0DC
:10294000818040F0010085E0616AD6F89800002996
:102950005AD040F00100C6F89800FFF7B5F90546D7
:10296000D6F8980080073FF54AAFFFF7ADF9401B56
:1029700002284FF00300F3D971E120F00100C6F8FE
:102980009400FFF7A1F90546D6F8940080077FF57B
:102990002FAFFFF799F9401B02284FF00300F3D93E
:1029A0005DE1B9F10C0F00F0FF80306820F080701D
:1029B0003060FFF789F904463068800140F1BF803C
:1029C000FFF782F9001B02284FF00300F4D946E11B
:1029D000B9F10C0F00F0E8803068400100F1E480AC
:1029E000306820F080703060FFF76EF9054600BF58
:1029F0003068800140F13F81FFF766F9401B0228F3
:102A00004FF00300F4D92AE120F00100C6F8980045
:102A1000FFF75AF9054600BFD6F8980080077FF502
:102A2000EEAEFFF751F9401B02284FF00300F3D937
:102A300015E140F00400C6F89000D6F8900040F090
:102A4000010007E020F00100C6F89000D6F89000E1
:102A500020F00400C6F89000FFF736F9002D054677
:102A600041F2883714D000BFD6F89000800713D405
:102A7000FFF72AF9401BB8424FF00300F4D9EEE00B
:102A8000FFF722F9401BB8424FF0030000F2E78045
:102A9000D6F890008007F3D4B8F1000F3FF5ABAE45
:102AA000B06D20F08050B065A5E620F480703060F5
:102AB000FFF70AF9054600BF306840057FF595AE7F
:102AC000FFF702F9401B02284FF00300F4D9C6E0DB
:102AD000A5F17000B0FA80F04009802D08BF0220F7
:102AE00000E0002042F20001C4F202010A6822F074
:102AF000070202440A60096801F00701814253D1CC
:102B0000306840F0080030603068D4E9071220F0E7
:102B1000F00010433060706820F47F4040EA0120EC
:102B200070602FE0FFF704FAB0F5007F7FF4CDADC1
:102B3000812D18D30120A02D88BF022014E0F06859
:102B40004FF6FC71CFF6EE610840F060002003B054
:102B5000BDE8F083A5F17000B0FA80F04009802D47
:102B600008BF022000E0002042F20001C4F202018E
:102B70000A6822F0070202440A60096801F00701AE
:102B8000814211D1B068F16810F00C0005D00C281A
:102B90002AD101F00301012926D13168090707D4A0
:102BA000D6F89410090A05E0012003B0BDE8F083CF
:102BB0003168090949F6B02201F00F01C0F60002A0
:102BC00052F8211000280A4618BF00220C282BD1E9
:102BD000F06800F00300022810D0032804BF41F27F
:102BE0000021C0F27A010DE004283BD008283FD133
:102BF00041F200220021C0F27A02E7E742F20041EE
:102C0000C0F2F401F068F268C0F30210C2F30622C9
:102C10005143F2680130B1FBF0F0C2F3416102228E
:102C200002EB4101B0FBF1F2B06849F21031C0F3A0
:102C30000310C0F60001085C00F01F0022FA00F14A
:102C400040F23800C2F2000040F20C020068C2F20A
:102C500000021160FFF75CF800283FF49AAC03B063
:102C6000BDE8F08342F200420021C0F2F402ADE779
:102C700000220021AAE7F06848F28C01C0F29D1101
:102C800004F12C0700EA010C8ECF6FF00F00D4E99D
:102C90000F5400EB02100022CFF6E07241EA0C0163
:102CA00002EA05520843A2F500124FF07E4540EAC1
:102CB000032005EA0465104305F17E4540EAC7603C
:102CC0002843F060306840F080703060F06840F079
:102CD0008070F060FEF7F8FF0446306880013FF531
:102CE00035AFFEF7F1FF001B02284FF00300F4D9C7
:102CF000B5E7000070B5044690F8200001284FF0B9
:102D0000020008BF70BD012184F8201084F8210062
:102D10002068CA21416253214162816821F48061A7
:102D20008160816821F480418160FEF7CDFF054616
:102D3000002600BF2168C868400709D4FEF7C4FF19
:102D4000401BB0F57A7FF5D921680322032001E00A
:102D500001220020FF234B6284F8212084F82060A8
:102D600070BD0000F0B581B0044690F82000012845
:102D70004FF002004ED00E46012184F8201084F856
:102D800021002068CA2141625321416281681546B1
:102D900021F480618160C16861F4906121F48061F7
:102DA000C160C068400611D4FEF78EFF074600BF21
:102DB0002068C068400709D4FEF786FFC01BB0F545
:102DC0007A7FF5D92168032203201CE021684E6137
:102DD000886820F007002843886040F20040C4F271
:102DE0000100026842F480120260826842F480129C
:102DF00082608868012240F480408860886840F4DE
:102E0000806088600020FF234B62002184F821202D
:102E100084F8201001B0F0BD7047000010B50446E2
:102E200040F21440C4F201004FF4801101602068A8
:102E3000C168490508D5C16861F4906121F48061D9
:102E4000C1602046FFF7E8FF012084F8210010BD93
:102E500010B5006840684FEA1043C0F3042E00F03C
:102E60003F0CC0F34234CB7081F801E081F802C01E
:102E70000C700AB1002010BDDCB2240904EB8404FC
:102E800003F00F0303EB4403020ACB704FEA1E1357
:102E900043EA830302F00F0202EB43024A704FEA57
:102EA0001C1242EA820200F00F0000EB4200887020
:102EB000002010BD10B50068836A4B6003696FF392
:102EC000DF338B600068C0F30543C0F3062E00F0CB
:102ED0007F0CC0F380540B7081F801E081F802C0D0
:102EE000CC700AB1002010BD020C1B0943EA830319
:102EF00002F00F0202EB4302040A0A704FEA1E12AC
:102F000002EB820204F00F0303EB42024A704FEA25
:102F10001C1202EB820200F00F0000EB42008870EE
:102F2000002010BD70B578B3044690F8210028B990
:102F3000002084F82000204600F05EF8022084F88B
:102F400021002068CA21416253214162C1684906BB
:102F50001DD44FF0FF31C160FEF7B6FE2168C9688D
:102F6000490618D406460025FEF7AEFE801BB0F5D4
:102F70007A7F84BF032584F821502068C06840060A
:102F800006D4032DF0D103E00125E8B270BD002581
:102F900025B1E8B270BD0025002DFAD194E80F00EC
:102FA0004FF6BF758668CFF68F752E40866026690E
:102FB0003143A66985683143294381600361016912
:102FC00041EA02410161204602F090FA05460028DC
:102FD000DFD120686169E269C36C114323F0030308
:102FE000C364C36C1943C164FF214162012084F8AA
:102FF0002100E8B270BD000010B598B0044601A8E9
:1030000004305421FDF719F9206842F60001C4F29A
:103010000001884202D018B010BD00BF4FF400304C
:1030200001904FF48070179001A8FEF793FF0028DD
:1030300018BFFDF789FD41F29000C4F2020001685B
:10304000002241F40041016003200021FEF7D0FE80
:103050000320FEF7BBFE18B010BD00002DE9F047BD
:10306000044690F820000225012800F095800120F8
:1030700084F8200084F821503AB14878CA7891F851
:1030800002A0000240EA024845E048784FF0CD0C2B
:10309000C20642BF00F0EF000A304870CA78487894
:1030A000A2F10A06F5B205FB0CF5ED0A05EB850762
:1030B000A6EB4707D3B207EB051791F802A0092B3F
:1030C00088BF07F11002A0F10A07FEB206FB0CF65A
:1030D000F60A06EB8605C3B2A7EB450707EB061712
:1030E000092B88BF07F11000C0B2D2B2000240EA3B
:1030F0000248AAF10A02D3B203FB0CF3DB0A03EB8A
:1031000083075FFA8AF0A2EB470202EB0312092859
:1031100088BF02F1100A206891F80090CA2141622C
:1031200053214162C16849061AD44FF0FF31C16092
:10313000FEF7CAFD2168C968490630D40646002555
:10314000FEF7C2FD801BB0F57A7F84BF032584F8AB
:1031500021502068C068400603D4032DF0D100E060
:10316000002575B95FFA8AF040EA08004FEA493154
:1031700020F0C000226808435060204602F0B6F9F3
:1031800005462068FF21002D416204BF012084F81C
:103190002100002084F82000E8B2BDE8F087002577
:1031A000002DEED1DEE700002DE9F041044690F855
:1031B00020000225012800F0AC80012084F82000C6
:1031C00084F8215020688846CA2141625321416217
:1031D000C168174649061BD44FF0FF31C160FEF7A6
:1031E00073FD2168C968490624D40646002500BF3E
:1031F000FEF76AFD801BB0F57A7F84BF032584F853
:1032000021502068C068400603D4032DF0D100E0AF
:103210000025002D72D1206880687FB140064046AD
:103220005CBF0021C1704378027881781B0243EAB9
:10323000024249E00025002D60D1ECE740064046FF
:103240005CBF0021C17002784FF0CD0CA2F10A06DC
:10325000F5B205FB0CF5ED0A437805EB8507A6EB07
:1032600047065FFA82FE06EB0515A3F10A06817890
:10327000BEF1090F88BF05F11002F5B205FB0CF590
:10328000DFB2ED0A5FFA82FE05EB8502092FA1F19C
:103290000A07A6EB4202FEB206FB0CF602EB051291
:1032A0004FEAD62688BF02F11003DAB206EB860594
:1032B0001202CBB2A7EB450742EA0E4207EB061714
:1032C000092B88BF07F11001C9B2C378114347F633
:1032D0007F7241EA8351C0F27F0223681140196076
:1032E000996821F480219960D0E903019A68084324
:1032F00010439860204602F0F9F805462068FF2147
:10330000002D416204BF012084F82100002084F8D0
:103310002000E8B2BDE8F081411E0020B0EB116F43
:103320001CBF012070474EF21002CEF20002516025
:103330004EF62351CEF20001F0230B70072190606E
:103340001160704770470000704700007047000030
:1033500090F83C20012A04BF0220704710B50122DA
:1033600080F83C20D1E90232D1E900CE22F47C522F
:1033700023F470531A4348F2FF73CFF6F07303EA55
:103380000E0342EA030E0A692CF477234EEA030C7B
:1033900022F476224B6942EA0C021A438B6A22F429
:1033A000742223F4702342EA030C8B69D0F800E006
:1033B00042F60042C4F2010296454CEA03430FD1A3
:1033C00023F07C72D1E9073C496A0024CFF6F0442F
:1033D00004EA0151114323F00072114341EA0C0346
:1033E0000021CEF8443080F83C10002010BD0000D1
:1033F00090F83C20012A4FF0020230D010B5012392
:1034000080F83C3080F83D20026842F6004C53685A
:10341000D2F808E0C4F2010C624503D14C6823F4F1
:10342000700323430C6823F070032343B2F1804FF1
:10343000536007D044F20003C4F201039A4201D062
:10344000624504D189682EF08003194391600121FF
:10345000002280F83D1080F83C20BDE81040104666
:103460007047000010B50446022084F83D00206833
:1034700041F21112016A114208D1016A40F244423C
:10348000114203D1016821F001010160204600F0E2
:103490008DF80021002084F8481084F83E1084F84C
:1034A0003F1084F8401084F8411084F8421084F8EA
:1034B000431084F8441084F8451084F8461084F8CA
:1034C000471084F83D1084F83C1010BD002804BF5C
:1034D00001207047B0B590F83D1031B9002180F857
:1034E0003C10044600F086F82046022180F83D108A
:1034F000016842F6004E0B68C4F2010E714502D01D
:10350000B1F1804F03D1846823F07003234343F665
:10351000FF74C4F2010444F2004CA142C4F2010C55
:1035200005DCB1F1804F0AD0714508D00BE0614550
:1035300005D044F20004C4F20104A14203D104699D
:1035400023F440732343826923F080034468C568F1
:103550001A4371450A60CD628C6218BF61451DD166
:1035600042690A6301224A6180F8482080F83E20BF
:1035700080F83F2080F8402080F8412080F84220E9
:1035800080F8432080F8442080F8452080F84620C9
:1035900080F8472080F83D200020B0BD44F20002B2
:1035A000C4F201029142DBD0DCE70000006842F681
:1035B0000041C4F20101884241F25801C4F2020103
:1035C0000ED041F20002C4F20002904218BF7047D0
:1035D00036206FF010020B681A400A60FEF7E0BB5D
:1035E000083118206FF400620B681A400A60FEF779
:1035F000D7BB000010B582B0006841F20001C4F2F0
:103600000001884214D042F60041C4F20101884210
:1036100028D141F25800C4F202008168182441F414
:1036200000618160806800F40060019001980DE005
:1036300041F25800C4F202000168362441F0100142
:103640000160006800F01000009000982046002102
:103650000022FEF7CDFB204602B0BDE81040FEF789
:10366000B5BB00BF02B010BD90F83D10012929D1B3
:10367000022180F83D100168C868B1F1804F40F028
:103680000100C8600BD044F20000C4F20100814286
:1036900005D042F60040C4F2010081420CD1886896
:1036A0000722C0F201020240062A4FF000000AD0B1
:1036B000B2F5803F08BF7047086840F0010008601D
:1036C000002070470120704790F83C20012A4FF0FD
:1036D00002026ED080B5012380F83C3080F83D2096
:1036E000D0F800C08822DCF80830CFF6FE721A400D
:1036F000CCF808200B684F2B28DC1F2B44DD202B37
:1037000045D0302B43D0402B40F0AC80D1F804E0C2
:10371000C968DCF82030DCF8202022F00102CCF867
:103720002020DCF8182022F0F00242EA011123F0F8
:103730000A0242EA0E02CCF81810CCF82020DCF87D
:10374000081041F0470121F0300127E06F2B32DDF6
:10375000B3F5005F73D0B3F5805F21D0702B40F0DC
:103760008180D1E901E3C968DCF8082043EA0E034F
:1037700022F47F4243EA01211143CCF80810DCF81F
:10378000081041F0770109E00BB1102B6AD1DCF889
:10379000081021F07001194341F00701CCF808101E
:1037A0000022012180F83D10002180F83C10BDE886
:1037B000804010467047502B21D0602B52D1D1F859
:1037C00004E0C968DCF8203023F01003CCF8203086
:1037D000DCF81830DCF8202023F4704322F0A0023B
:1037E00043EA013142EA0E12CCF81810CCF820203E
:1037F000DCF8081041F0670121F01001CEE7D1F8A4
:1038000004E0C968DCF82030DCF8202022F0010256
:10381000CCF82020DCF8182022F0F00242EA011156
:1038200023F00A0242EA0E02CCF81810CCF820204D
:10383000DCF8081041F0570121F02001AEE7D1E992
:1038400001E3C968DCF8082043EA0E0322F47F4252
:1038500043EA01211143CCF80810DCF8081041F4C8
:1038600080419BE701229CE70068B0F1804F18BFC0
:10387000704700F0BBBE000090F83C30012B04BF45
:10388000022070474FEAB2020123032A80F83C303D
:1038900000F29F80F0B5DFE802F002602242036888
:1038A000D1E900C5D1F80CE01A6AB3F1804F22F0DB
:1038B00001021A621A4652F8186F1C6A0BD044F2C1
:1038C0000007C4F20107BB4205D042F60047C4F22C
:1038D0000107BB4267D126F00306354365E0076860
:1038E000D1E900C5D1E902313A6A61F3071522F442
:1038F00080723A623A4652F81C4F3E6A24F0F30452
:1039000045EA040126F420660CF00A0546EA05267D
:1039100011603E62116821F00C01116053E00368F0
:10392000D1E900E6D1E902C11A6A360222F48052D6
:103930001A621A4652F81C4F4FF2FF071D6ABE4327
:1039400024F4734461F30F3646EA040125F420445D
:103950000EF00A0744EA07371CE00368D1E900E6E5
:10396000D1E902C11A6A360222F010021A621A461E
:1039700052F8184F4FF2FF071D6ABE4324F47344F8
:1039800061F30F3646EA040125F0A0040EF00A07A1
:1039900044EA071711601F6211684FEA0C2321F4F3
:1039A000406111600FE046F0010524F00A070CF0B9
:1039B0000A066EF3071537449D611F629F6927F061
:1039C0000C079F618B681168194300231160BDE8E3
:1039D000F040002180F83C1018467047002804BFD2
:1039E00001207047B0B590F83D1031B9002180F842
:1039F0003C10044600F062F82046022180F83D1099
:103A0000016842F6004E0B68C4F2010E714502D007
:103A1000B1F1804F03D1846823F07003234343F650
:103A2000FF74C4F2010444F2004CA142C4F2010C40
:103A300005DCB1F1804F0AD0714508D00BE061453B
:103A400005D044F20004C4F20104A14203D1046988
:103A500023F440732343826923F080034468C568DC
:103A60001A4371450A60CD628C6218BF61451DD151
:103A700042690A6301224A6180F8482080F83E20AA
:103A800080F83F2080F8402080F8412080F84220D4
:103A900080F8432080F8442080F8452080F84620B4
:103AA00080F8472080F83D200020B0BD44F200029D
:103AB000C4F201029142DBD0DCE7000080B586B0A1
:103AC00000680021B0F1804F0591CDE9031102910A
:103AD000019101D006B080BD41F24C00C4F2020059
:103AE000C26842F00102C260C26802F001020092A4
:103AF000009A026842F001020260006800F00100D2
:103B0000009000984FF400400190022002900120A4
:103B1000CDE90301059001A94FF09040FDF7FAFFB0
:103B20001C2000210022FEF763F91C20FEF74EF94D
:103B300006B080BD80B559B10B1F4FEAB30C4322CC
:103B40004FF03F0EBCF1040F38BF0EEBB30200E0A4
:103B50003E2247230829825C08BF4623042908BF68
:103B60004523002908BF4423012A4FF00102C35C0A
:103B700008BF012B01D0104680BD69B10A1F4FEA72
:103B8000B202032A27D8DFE802F002160C11022243
:103B900080F83F2099B923E0022280F83E2071B9D5
:103BA0001EE0022280F8412049B919E0022280F883
:103BB000422021B914E0022280F8402081B1082976
:103BC00006D0042914BF80F8472080F8452009E07A
:103BD00080F8462006E0022280F843200029EED13A
:103BE00080F844204FEAB103032B11D849F6E02CAA
:103BF000D0F800E0C0F6000C5CF823C0DEF80C2022
:103C000042EA0C02CEF80C200022032BB3D802E0CB
:103C10000122032BAFD8006801F01F014FF0010C07
:103C2000036A0CFA01F18B430362036AB0F1804F1F
:103C300041EA030101620BD044F20001C4F2010128
:103C4000884205D042F60041C4F2010188420BD1FE
:103C500081680723C0F20103194006293FF48BAFA6
:103C6000B1F5803F3FF487AF016841F00101016089
:103C7000104680BD10B5044600680169890744BF3D
:103C8000C1685FEA817147D420680169490744BF70
:103C9000C1685FEA41714BD420680169090744BFDC
:103CA000C1685FEA017150D420680169C90644BF48
:103CB000C1685FEAC16154D420680169C9071CBFAB
:103CC000C1685FEAC17159D120680169090644BF22
:103CD000C1685FEA016158D420680169C90544BF21
:103CE000C1685FEA016157D420680169490644BF91
:103CF000C1685FEA416156D421680869800646BF01
:103D0000C8685FEA806010BD6FF0200220460A613B
:103D1000BDE81040FFF71ABB6FF0020101610121FD
:103D200021778069800745D02046FFF79DFD47E059
:103D30006FF00401016102212177806910F4407F56
:103D400041D02046FFF790FD43E06FF0080101618C
:103D500004212177C06980073ED02046FFF784FD0B
:103D600040E06FF01001016108212177C06910F473
:103D7000407F3AD02046FFF777FD3CE06FF001012D
:103D80000161204600F004FB9EE76FF080010161B5
:103D90002046FFF7D9FA9FE76FF480710161204652
:103DA000FFF7D0FAA0E76FF040010161204600F074
:103DB0003BFBA1E7204600F021F8204600F066FA20
:103DC0000020207760E7204600F018F8204600F039
:103DD0005DFA002020775FE7204600F00FF82046CC
:103DE00000F054FA002020775EE7204600F006F845
:103DF000204600F04BFA002020775DE77047000076
:103E000090F83C30012B04BF022070474FEAB20209
:103E10000123052A80F83C3000F2C0812DE9F041F1
:103E2000DFE812F0060029019D00EA005D0075013F
:103E3000036842F600461A6AC4F2010622F0010243
:103E40001A621D6A1A46D3F804C052F818EF8F6838
:103E5000D1F8008025F00205B34245EA07050BD0F2
:103E600044F20047C4F20107BB4205D044F2000708
:103E7000C4F20107BB4205D1CF6825F00C0527F03D
:103E800004073D43B3420BD044F20046C4F201069E
:103E9000B34205D044F20006C4F20106B34206D193
:103EA000D1E905672CF44074264346EA070C4FF627
:103EB0008C74CFF6FE740EEA040747EA0807C3F8CD
:103EC00004C09F614F6809695F631D629F6947F085
:103ED00008079F619F6927F004079F6158E1036805
:103EE00042F600471A6AC4F2010722F480321A62CD
:103EF0001A461C6A5D6852F854EFD1F800C08E680B
:103F0000BB420BD044F20047C4F20107BB4205D0CC
:103F100044F20007C4F20107BB4204D14F6925F403
:103F2000803545EA072524F4003444EA06444FF678
:103F30008C76CFF6FE7603360EEA060747EA0C07C4
:103F40005D605F654F6809699F651C625F6D47F042
:103F500008075F655F6D27F004075F6518E1036878
:103F600042F600461A6AC4F2010622F480721A620E
:103F70001F6A1A465D6852F81CCF8C6827F40077D8
:103F8000B34247EA042409D1CF6824F4406E3F02CB
:103F900040F2FF4427EA040444EA0E04D1F800E0AA
:103FA000B3420BD044F20046C4F20106B34205D03E
:103FB00044F20006C4F20106B34206D1D1E9056716
:103FC00025F440553E4345EA06154FF68C76CFF66C
:103FD000FE760CEA060747EA0E075D60DF614F6870
:103FE0000969DF631C62DF6947F00807DF61DF6989
:103FF00027F00407DF61CBE0036842F600471A6A46
:10400000C4F2010722F480521A621A461C6A5D68E3
:1040100052F81CCFD1F800E08E68BB420BD044F2BE
:104020000047C4F20107BB4205D044F20007C4F2C6
:104030000107BB4204D14F6925F4804545EA871545
:1040400024F4005444EA063448F6FF46CFF6FF66EF
:104050000CEA060747EA0E275D60DF614F680969D1
:104060001F641C62DF6947F40067DF61DF6927F4C2
:104070008067DF618BE0036842F600461A6AC4F28B
:10408000010622F010021A621F6A1A465D6852F891
:1040900018CF8C6827F02007B34247EA041408D1F0
:1040A00024F0C00ECC686FF0400707EA041444EA1D
:1040B0000E04D1F800E0B3420BD044F20046C4F243
:1040C0000106B34205D044F20006C4F20106B34231
:1040D00006D1D1E9056725F440653E4345EA8605EA
:1040E00048F6FF46CFF6FF660CEA060747EA0E27BA
:1040F0005D609F614F6809699F631C629F6947F417
:1041000000679F619F6927F480679F613FE00368B4
:1041100042F600471A6AC4F2010722F480121A62BA
:104120001A461C6A5D6852F854EFD1F800C08E68D8
:10413000BB420BD044F20047C4F20107BB4205D09A
:1041400044F20007C4F20107BB4204D14F6925F4D1
:10415000802545EA872524F4001444EA065448F6ED
:10416000FF46CFF6FF6606F540760EEA060747EAF9
:104170000C275D605F654F680969DF651C625F6DD4
:1041800047F400675F655F6D27F480675F6509022C
:104190001368194300231160BDE8F041002180F845
:1041A0003C10184670470000002804BF01207047EB
:1041B000B0B590F83D1031B9002180F83C100446AC
:1041C00000F062F82046022180F83D10016842F6B6
:1041D000004E0B68C4F2010E714502D0B1F1804F60
:1041E00003D1846823F07003234343F6FF74C4F2C1
:1041F000010444F2004CA142C4F2010C05DCB1F10F
:10420000804F0AD0714508D00BE0614505D044F2DB
:104210000004C4F20104A14203D1046923F44073F1
:104220002343826923F080034468C5681A437145BB
:104230000A60CD628C6218BF61451DD142690A6374
:1042400001224A6180F8482080F83E2080F83F2013
:1042500080F8402080F8412080F8422080F84320F8
:1042600080F8442080F8452080F8462080F84720D8
:1042700080F83D200020B0BD44F20002C4F20102EB
:104280009142DBD0DCE7000070470000704700007F
:1042900080B559B10B1F4FEAB30C43224FF03F0ECC
:1042A000BCF1040F38BF0EEBB30200E03E22825C8B
:1042B000012A1CBF012080BD61B10A1F4FEAB20272
:1042C000032A17D8DFE802F002120A0E022280F851
:1042D0003F2012E0022280F83E200EE0022280F809
:1042E00041200AE0022280F8422006E0022280F803
:1042F000402002E0022280F84320026801F01F0003
:104300000121136A01FA00F023EA00011162116A27
:10431000084343F6FF71C4F201018A42106205DCD2
:10432000B2F1804F21D042F6004007E044F2004055
:10433000C4F20100824205D044F20000C4F2010040
:1043400082421FD1506CB2F1804F40F40040506463
:104350000BD044F20000C4F20100824205D042F6C4
:104360000040C4F2010082420CD190680721C0F2E3
:104370000101014006294FF0000008D0B1F5803F4F
:1043800008BF80BD106840F001001060002080BDB3
:10439000B0B540F26404C2F200040068A16888422B
:1043A00000D0B0BD208840F24505013081B22080A8
:1043B00001203C29C2F20005608013D100F04CFAC4
:1043C00040F2BC00C2F2000090ED000A287801F033
:1043D000FBFA40F60000C4F600004FF480610022B2
:1043E000FDF76CFC2978A088012905D1232803D882
:1043F0000130A080B0BD00BF0129D2D1232838BF31
:10440000B0BD00202870A080BDE8B04000F024BA04
:104410004FEAB101032984BF00207047006800EB18
:104420008100406B7047000070470000002804BF07
:104430000120704710B524218167016804460A688D
:1044400022F001020A6000220A604A608A6000F0DD
:104450006BF80020C4F88000A067E067206684F84D
:10446000740010BD002804BF01207047B0B582B0B1
:104470000446806F28B9002084F87400204600F0BC
:1044800069F82420A0672068016821F0010101601B
:10449000204601F097FD10B1012002B0B0BD606A66
:1044A00010B1204601F01AFD2068416821F49041C6
:1044B0004160816821F02A018160016841F00101B9
:1044C00001600020C4F88000FDF7FEFB216805466E
:1044D000096809070BD56FF07E4C20464FF4001198
:1044E00000222B46CDF800C001F082FE78B920688A
:1044F000006840070ED56FF07E4C20464FF48001D7
:1045000000222B46CDF800C001F072FE10B103204E
:1045100002B0B0BD2020A067E0670020206684F8CC
:10452000740002B0B0BD0000006843F60001C4F2A0
:104530000101884218BF704741F26002C4F20202D2
:1045400010684FF4C06120F480434FF09040136036
:10455000FDF73ABA10B59EB0044600201D90CDE993
:104560001B00CDE9190002A804305821FBF765FEB5
:10457000206843F60001C4F20101884202D01EB057
:1045800010BD00BF01200290022402A80A94FDF78A
:10459000E1FC002818BFFCF7D7FA41F24C00C4F246
:1045A0000200416941F480414161416901F4804167
:1045B00001910199016841F001010160006819A9A8
:1045C00000F00100019001984FF4C060CDE919049A
:1045D0000020CDE91B0007201D904FF09040FDF713
:1045E00099FA1EB010BD0000FEE7000070B540F261
:1045F0000805C2F20005287880B140F29410C2F29A
:104600000000006800214162026A22F00A02026290
:10461000026A42F002020262297070BD40F29414F4
:10462000C2F20004204600210026FFF7F1FE40F20E
:104630005C01C2F2000122684880136A23F00A0379
:104640001362136A136241F21C12821A92B2C82AD0
:104650004FF001022A7003D80A704E6070BD00BF8F
:1046600046F2AE62024492B2C82A03D828200870EB
:1046700070BD00BF0A78531E1F2B11D8A0F204662C
:10468000B6B2C82E18D8504201EBD30300F0070091
:1046900001261D7906FA00F02843187111E000BFC9
:1046A000282A1CD1A0F6480080B2C82888BF70BD57
:1046B0000120487070BD00BFA0F5E67080B2C92827
:1046C0000ED2501C2128087009D108794A7950402F
:1046D000FF2804D18879CA795040FF28E8D070BDFE
:1046E0000020087070BD000040F25C02C2F20002BF
:1046F000517800294FF0000111D0517001601179FB
:104700000B06036053791B0443EA0161016093794E
:1047100041EA03210160D279114401600121084678
:1047200070470000F0B581B00746742014460E466D
:1047300003F028F86FF0010000EB4705284603F06E
:1047400021F84FF0FF3000EB470003F01BF8752015
:1047500003F018F83601304603F014F806F10F00A4
:1047600003F010F8C02003F00DF8304603F00AF80B
:10477000012003F007F8284603F004F849F2283135
:104780006001C0F60001085C01EB441703F0ACF8CF
:104790007878BC78FD783E7903F0A6F8204603F0DF
:1047A000A3F8284603F0A0F8304603F09DF8787986
:1047B00003F09AF8B87903F097F8F87903F094F8D1
:1047C000387A03F091F8787A03F08EF8B87A03F02B
:1047D0008BF8F87A03F088F8387B03F085F8787B5B
:1047E00003F082F8B87B03F07FF8F87B03F07CF8E5
:1047F000387C03F079F8787C03F076F8B87C03F025
:1048000073F8F87C03F070F8387D03F06DF8787D6C
:1048100003F06AF8B87D03F067F8F87D03F064F8F8
:10482000387E03F061F8787E03F05EF8B87E03F01E
:104830005BF8F87E03F058F8387F03F055F8787F7E
:1048400003F052F8B87F03F04FF8F87F01B0BDE8ED
:10485000F04003F049B8000010B5742002F092FF58
:10486000002002F08FFF072002F08CFF752002F07D
:1048700089FF002002F086FF7F2002F083FFC02026
:1048800002F080FF002002F07DFF072002F07AFF97
:10489000012002F077FF002002F074FF7F2002F079
:1048A00071FF8024002003F01FF8013CFAD180241E
:1048B000002003F019F8013CFAD18024002003F015
:1048C00013F8013CFAD18024002003F00DF8013CDC
:1048D000FAD18024002003F007F8013CFAD18024AB
:1048E000002003F001F8013CFAD18024002002F0FE
:1048F000FBFF013CFAD18024002002F0F5FF013CCF
:10490000FAD110BDF0B581B00546742014460E46AC
:1049100002F038FF6FF00100AF0000EB850528467C
:1049200002F030FF781C02F02DFF752002F02AFF04
:104930003601304602F026FF06F10F0002F022FF9A
:10494000C02002F01FFF304602F01CFF012002F0E1
:1049500019FF284602F016FF49F28851A001C0F65F
:104960000001085C01EB841702F0BEFF7878BC7888
:10497000FD783E7902F0B8FF204602F0B5FF2846E8
:1049800002F0B2FF304602F0AFFF787902F0ACFFE0
:10499000B87902F0A9FFF87902F0A6FF387A02F0A0
:1049A000A3FF787A02F0A0FFB87A02F09DFFF87AB0
:1049B00002F09AFF387B02F097FF787B02F094FFB9
:1049C000B87B02F091FFF87B02F08EFF387C02F09A
:1049D0008BFF787C02F088FFB87C02F085FFF87CC2
:1049E00002F082FF387D02F07FFF787D02F07CFFCD
:1049F000B87D02F079FFF87D02F076FF387E02F094
:104A000073FF787E02F070FFB87E02F06DFFF87ED3
:104A100002F06AFF387F02F067FF787F02F064FFE0
:104A2000B87F02F061FFF87F02F05EFF97F8200088
:104A300002F05AFF97F8210002F056FF97F8220083
:104A400002F052FF97F8230002F04EFF97F824007F
:104A500002F04AFF97F8250002F046FF97F826007B
:104A600002F042FF97F8270002F03EFF97F8280077
:104A700002F03AFF97F8290002F036FF97F82A0073
:104A800002F032FF97F82B0002F02EFF97F82C006F
:104A900002F02AFF97F82D0002F026FF97F82E006B
:104AA00002F022FF97F82F0002F01EFF97F8300067
:104AB00002F01AFF97F8310002F016FF97F8320063
:104AC00002F012FF97F8330002F00EFF97F834005F
:104AD00002F00AFF97F8350002F006FF97F836005B
:104AE00002F002FF97F8370002F0FEFE97F8380058
:104AF00002F0FAFE97F8390002F0F6FE97F83A0055
:104B000002F0F2FE97F83B0002F0EEFE97F83C0050
:104B100002F0EAFE97F83D0002F0E6FE97F83E004C
:104B200002F0E2FE97F83F0001B0BDE8F04002F06D
:104B3000DBBE0000F0B581B00746742014460E4677
:104B400002F020FE6FF0010000EB4705284602F05E
:104B500019FE4FF0FF3000EB470002F013FE752006
:104B600002F010FEF600304602F00CFEF01D02F0DE
:104B700009FEC02002F006FE304602F003FE0120CE
:104B800002F000FE284602F0FDFD49F690112001DA
:104B9000C0F60001085C01EB041702F0A5FE78786E
:104BA000BC78FD783E7902F09FFE204602F09CFE24
:104BB000284602F099FE304602F096FE787902F01F
:104BC00093FEB87902F090FEF87902F08DFE387A03
:104BD00002F08AFE787A02F087FEB87A02F084FE4C
:104BE000F87A02F081FE387B02F07EFE787B02F0DC
:104BF0007BFEB87B02F078FEF87B01B0BDE8F040A8
:104C000002F072BE80B540F60000C4F600004FF41A
:104C100000610122FDF752F8B12002F0B3FD23201C
:104C200002F0B0FD302002F0ADFD002002F0AAFD40
:104C3000312002F0A7FD112002F0A4FDFC2002F0BB
:104C4000A1FD902002F09EFD402002F09BFD33204C
:104C500002F098FD2D2002F095FD6C2002F092FDEF
:104C6000B22002F08FFD102002F08CFD002002F037
:104C700089FD742002F086FD002002F083FD0720EC
:104C800002F080FD752002F07DFD002002F07AFD2B
:104C90007F2002F077FDC02002F074FD002002F0BA
:104CA00071FD072002F06EFD012002F06BFD002077
:104CB00002F068FD7F2002F065FD3D2002F062FDFC
:104CC00002F01CFD40F26820C2F2000040F24001F8
:104CD0000278037A90F810C0007EC2F200010A70D8
:104CE0004B7081F802C0C87080BD0000B0B540F2C2
:104CF000C005C2F2000504462846FCF763F82846C2
:104D0000FCF794FC2846FCF701FA40F2E010C2F2EE
:104D10000000FFF78BFB40F24810C2F20000FEF7E4
:104D2000A1FB4EF21000CEF2000000210160816074
:104D300041F24C00C4F20200016821F0010101605F
:104D4000016821F002010160016821F004010160A5
:104D5000016821F080010160FBF772FF40F2241529
:104D6000C2F200052846FDF7C5FF40F24001C2F23D
:104D70000001097842F630206043C1EB011100EBDD
:104D8000810128460422FDF7EDFF0120BDE8B04077
:104D9000FDF7AEB810B500F06DF840F2E010C2F2C9
:104DA0000000FFF7D7FB00F0BDFA00F07FF900F03C
:104DB00027FA00F08DFA00F021F840F24814C2F210
:104DC000000420460021FFF763FA20686421416354
:104DD00040F29410C2F200000021FEF7ABFE40F258
:104DE0006C00C2F20000FEF73FFC01F09BFAFFF7F7
:104DF00009FFBDE81040FFF72FBD0000B0B586B039
:104E000040F2C0000021C2F20000C5F204010024FB
:104E10000425C0E900140121C0E90244C0E90445A9
:104E20000483C16180F82040C0E90A4480F8304022
:104E3000446380F83840FCF713FA002818BFFBF7EA
:104E400083FE40F20020C2F2B05000900620CDE96F
:104E500001047F20CDE9030540F2C000C2F200004A
:104E600069460594FBF7D4FF002818BFFBF76CFEDA
:104E700006B0B0BD2DE9F04F87B0002741F24C00DD
:104E80000697CDE90477CDE90277C4F20200016804
:104E900040F2004441F0040101600168C4F60004DE
:104EA00001F0040101910199016804F5806641F067
:104EB000800101600168002201F0800101910199E7
:104EC000016840F6014B41F001010160016801F009
:104ED000010101910199016841F00201016001683D
:104EE00001F0020101910199016841F0080101609E
:104EF000006840F6014100F008000190019830463A
:104F0000FCF7DCFE4FF09040202101224FF0200AF8
:104F10004FF00108FCF7D2FE204640F2013100229A
:104F2000FCF7CCFE20464FF2E0010122FCF7C6FE62
:104F300043F2DE3002AD02904FF0030930462946BD
:104F4000CDE90397FCF7E6FD0B20CDE9020904F556
:104F5000C05029460497FCF7DDFD30462946CDE9CF
:104F600002B8CDE90477FCF7D5FD47F6CF00CDE9CF
:104F700002094FF0904029460497FCF7CBFD022030
:104F8000CDE904074FF090402946CDE902A8FCF78F
:104F9000C1FD4FF40410CDE9030730462946CDF892
:104FA00008A0FCF7B7FD4FF20130CDE9020820461A
:104FB0002946CDE90477FCF7ADFD40F61E40CDE96A
:104FC0000209204629460497FCF7A4FD0420CDE9F8
:104FD000020904F5006029460497FCF79BFDE020D8
:104FE000CDE9020820462946CDE90487FCF792FD69
:104FF000172000210022FCF7FBFE1720FCF7E6FE3D
:1050000007B000F000B830BCBDE8C08F10B586B066
:1050100040F2241042F600010024C2F20000C4F263
:1050200000017F22C0E9001400F10801CDE902442B
:10503000CDE90044FF231CC1C0E90544C461FDF76C
:1050400071FF002818BFFBF77FFD40F22410C2F269
:10505000000001A90122ADF804408DF80640CDE919
:105060000444FEF7A1F8002818BFFBF76DFD40F2DD
:105070000110C0F20100009040F22410C2F20000C2
:1050800069460122FDF7EAFF002818BFFBF75CFD27
:1050900040F22410C2F2000005210422FDF762FE56
:1050A000002818BFFBF750FD06B010BD70B5A0B0CA
:1050B00042F60045002401A82C21C4F201051994F0
:1050C000CDE91744CDE91444CDE91244CDE91044AB
:1050D000CDE90E44CDE90C44FBF7AFF840F248109F
:1050E000C2F200003221C722C0E90051C0E90242E9
:1050F000C0E904448461FEF7E9F9002818BFFBF712
:1051000023FD4FF48050169040F24810C2F2000088
:1051100016A9FEF7D9FA002818BFFBF715FD40F2D3
:105120004810C2F20000FFF73FF8002818BFFBF755
:105130000BFD40F248100024C2F2000013A9CDE993
:1051400013441594FEF754F9002818BFFBF7FCFC34
:105150006020CDE90C0440F24810C2F200000CA916
:105160000022CDE90E44CDE910441294FEF748FE2A
:10517000002818BFFBF7E8FC00264FF4005040F26F
:105180004814CDE906064FF00070C2F20004CDE9E4
:10519000090601A920460596CDE90366CDE9016619
:1051A00008960B96FEF7D4F8002818BFFBF7CCFC46
:1051B00020681F96A842CDE91D661C961B9601D05B
:1051C00020B070BD41F24C00C4F20200016841F011
:1051D0000101016000681BA900F001001A901A98F3
:1051E0004FF480701B9002201C900020CDE91D0020
:1051F00001201F904FF09040FCF78CFC20B070BD58
:1052000010B58CB0002441F24C000B94CDE9094458
:10521000CDE90744C4F20200C16841F00101C16058
:10522000C16801F0010100910099016841F001019C
:105230000160006807A900F00100009000984FF499
:105240000040079002200890012009900B904FF039
:105250009040FCF75FFC1C2000210022FCF7C8FDF9
:1052600040F29410C2F200004FF080410F224FF440
:10527000803380E8160080210594C0E90334816101
:10528000FEF7ACFB002818BFFBF75EFC40F2941061
:10529000C2F2000004A904940694FEF7A9F80028BD
:1052A00018BFFBF751FC002001210090CDE901104F
:1052B000039040F29410C2F2000069460022FEF70B
:1052C000DBFA002818BFFBF73FFC0CB010BD000054
:1052D000B0B584B040F26405C2F2000541F20001AD
:1052E000C4F200012846002440F8081F43F67F61FD
:1052F00040F2E7320294C0E90114C2608461FEF713
:10530000E5F8002818BFFBF71FFC05F1080001A90C
:1053100001940394FEF76CF8002818BFFBF714FC07
:1053200004B0B0BD80B540F2E01043F60001C2F217
:105330000000C4F2010100234FF00C0C4FF4165290
:1053400080E80E00C0E90333C0E905C3C0E90733B4
:105350004362FFF787F8002808BF80BDBDE88040A2
:10536000FBF7F2BBFEE7000070470000704700004B
:105370002DE9F04141F20004C4F20204E2680E4655
:105380009107804613D0E168D8F8000001F00301CE
:1053900081420AD148B1E068D8F80410C0F3021085
:1053A0000130884201D100253AE0012538E0D8F8E3
:1053B0000000032817D002280BD0012821D1216832
:1053C000012301F0020283EA5205C1F34001D9B979
:1053D00026E02168012301F4806283EA9225C1F36B
:1053E000802189B91CE0216889034FF0010178D43C
:1053F000226802F4802381EA9345C2F3804119B9FF
:105400000EE00125002159B1E168D8F804206FF0C1
:105410000F0321F0730103EB021211430843E06014
:1054200085B9206820F080602060FCF74DFC0746BD
:105430002068000105D5FCF747FCC01B0328F7D303
:10544000032515B12846BDE8F0812169D8F8080088
:10545000012E4FEA002009D0CEB948F2FF02D8F859
:105460000C30C0F2FF721140DA061DE048F2FF0274
:10547000CFF6FF1202F1B4621140D8F810200023D9
:10548000CFF6E07303EA0252A2F500120CE048F2F4
:10549000FF02CFF6FF121140D8F814204FF07E43E0
:1054A00003EA026202F17E42084310432061206851
:1054B00040F080602060FCF707FC06462068000191
:1054C00005D4FCF701FC801B0328F7D30325002D2E
:1054D000B8D1D8F818002169084320612846BDE8F2
:1054E000F081002500297FF48FAF99E7F0B581B0F6
:1054F00042F60806C4F200067168044621F08001F5
:1055000071603168890618D42068C16821F0A00153
:10551000C160FCF7D9FB05462068C06886062AD41E
:10552000FCF7D2FB401BB0F57A7FF5D9002E22D4D0
:10553000032084F8210001B0F0BD306820F0200085
:1055400030602068C16821F0A001C160FCF7BCFB9D
:10555000054600BF2068C06887060FD4FCF7B4FB7F
:10556000401BB0F57A7FF5D9002F5ABF032084F88D
:105570002100002003E0002001B0F0BD00203168D0
:1055800041F02001316001B0F0BD000010B586B0DF
:1055900040F22414C2F2000405A920460022FDF7BF
:1055A00057FC694620460022FDF784FC9DF8152033
:1055B0009DF816309DF8171049F62B30C0F6000004
:1055C00002F044FA9DF800109DF801209DF8023089
:1055D00049F63B30C0F6000002F038FA49F62930AF
:1055E000C0F6000003F000FE06B010BD40F224102B
:1055F000C2F20000FDF712BC2DE9F04784B004466A
:10560000FFF72AF9A4F10A00042800F28B80DFE8F2
:1056100000F003892513E70040F24000C2F20000C9
:1056200040F20111818040F21000C2F2000001211D
:105630000170FFF711F975E040F21001C2F20001AC
:105640000878022873D340F24002C2F200021279B5
:10565000012A04BF0138087069E000BF40F2400928
:10566000C2F2000999F8040001285BD199F80500FD
:10567000012857D199F801604FF47A70FBF7F4FFD5
:1056800049F62035C0F600052846C0210522012331
:10569000009602F0DBF94FF47A70FBF7E5FF28463D
:1056A000C02105220123009602F0D0F94FF47A7050
:1056B000FBF7DAFF2846C02105220123009602F0FD
:1056C000C5F94FF47A70FBF7CFFF2846C0210522B9
:1056D0000123009602F0BAF94FF47A70FBF7C4FF89
:1056E0002846C02105220123009602F0AFF94FF0B1
:1056F0000008A9F80480FFF7AFF899F8005099F86E
:1057000001A099F8027099F80360FBF785FA284622
:10571000002152460023CDE900780296CDF80C8096
:1057200001F0B4FF40F21000C2F2000000784FF028
:10573000FF3151FA80F0032800F2E880DFE800F042
:10574000023E162A092C00F28B8040F24000C2F281
:1057500000008279511C012A817100F0C180002A69
:1057600040F0168101210470817125E1092C49D88E
:1057700040F24000C2F20000027A511C012A01727C
:1057800000F09E80002A40F0CB80012184700172DD
:10579000DAE000BF092C4FD840F24000C2F200000E
:1057A000427A511C012A417200F09280002A40F096
:1057B000D3800121C4704172E2E000BF092C67D898
:1057C00040F24000C2F20000C279012A02F1010158
:1057D00000F08E80002A14BF447844708EE000BF31
:1057E00040F21001C2F20001087803289FD840F26D
:1057F0004002C2F200021279012A04BF013008708F
:1058000095E700BF0B2C40F0818040F24000C2F2CF
:1058100000008178027A49F69A13C1F69913A1FB28
:105820000337013A0929027287706FD8002101728B
:1058300004B0BDE8F08700BF0B2C67D140F24000F8
:10584000C2F20000C178CD220139C9B24A43D20A5E
:105850000929C2705AD80021417204B0BDE8F0870E
:105860000B2C53D140F24000C2F200000178827943
:1058700049F69A13C1F69913A1FB0337013A092996
:105880008271077042D80021817104B0BDE8F087B1
:105890000B2C3BD140F24000C2F200004178C279AB
:1058A00049F69A13C1F69913A1FB0337013A092966
:1058B000C27147702AD80021C17104B0BDE8F087D9
:1058C000827802EB820204EB4204847029E000BF7C
:1058D000C27802EB820204EB4204C4703DE000BFD8
:1058E000027802EB820204EB4204047051E000BF34
:1058F000427802EB820204EB42044470C9B20222F5
:10590000022938BF01222106C27103D004B0BDE8CC
:10591000F08700BF0021C171417004B0BDE8F0877D
:105920008478C9B202294FF00202E1B238BF0122E5
:1059300064294FF00201027206D363228270017261
:1059400004B0BDE8F08700BF2106DFD1002101725D
:10595000817004B0BDE8F087C478C9B202294FF065
:105960000202E1B238BF012219294FF0020142724E
:1059700006D31822C270417204B0BDE8F08700BFA0
:105980002106C3D100214172C17004B0BDE8F08787
:105990000478C9B202294FF00202E1B238BF0122F5
:1059A00064294FF00201827106D363220270817173
:1059B00004B0BDE8F08700BF2106A7D100218171A6
:1059C000017004B0BDE8F087B0B52DED028B002862
:1059D00000F0CE80012840F09F8140F21000C2F21A
:1059E0000000007800210A22FEF79CFE0120012120
:1059F0000B22FEF797FE012002210C22FEF792FEF9
:105A0000012003210222FEF78DFE01200421032242
:105A1000FEF788FE01200A210B22FFF78BF840F2E7
:105A20004004C2F200042078CD256843C20A012058
:105A30000C21FFF77FF8207800FB05F1C90A01EB84
:105A40008101A0EB4100C2B201200D21FFF772F8E5
:105A5000022001210B22FEF765FE022002210C220A
:105A6000FEF760FE022003210422FEF75BFE022007
:105A700004210522FEF756FE02200A210B22FFF721
:105A800059F860780C216843C20A0220FFF752F8E7
:105A9000607800FB05F1C90A01EB8101A0EB410030
:105AA000C2B202200D21FFF745F803200121002298
:105AB000FEF738FE032002210122FEF733FE032009
:105AC00003210622FEF72EFE032004210722FEF703
:105AD00029FE03200A210B22FFF72CF8A0780C21C5
